:100000000C945D000C9485000C9485000C94850084
:100010000C9485000C9485000C9485000C9485004C
:100020000C9485000C9485000C9485000C9485003C
:100030000C9485000C9485000C9485000C9485002C
:100040000C944B050C9485000C9419050C94F30446
:100050000C9485000C9485000C9485000C9485000C
:100060000C9485000C94850000000008000201003B
:100070000003040700000000000000000000000072
:10008000250028002B0000000000240027002A0083
:10009000040404040404040402020202020203032E
:1000A0000303030301020408102040800102040836
:1000B0001020010204081020950511241FBECFEF67
:1000C000D8E0DEBFCDBF11E0A0E0B1E0ECE8F4E1A4
:1000D00002C005900D92A03DB107D9F722E0A0ED36
:1000E000B1E001C01D92A639B207E1F710E0CDE5FD
:1000F000D0E004C02197FE010E943E0ACC35D10712
:10010000C9F70E94DF050C94440A0C94000090E0AB
:10011000FC01EC55FF4F249180579F4FFC018491C7
:10012000882399F090E0880F991FFC01EA57FF4F50
:10013000A591B491FC01E458FF4F859194918FB73C
:10014000F894EC91E22BEC938FBF0895AF92BF929D
:10015000CF92DF92EF92FF920F931F93CF93DF9393
:100160006C017B018B01040F151FEB015E01AE18C2
:10017000BF08C017D10759F06991D601ED91FC91E4
:100180000190F081E02DC6010995892B79F7C50111
:10019000DF91CF911F910F91FF90EF90DF90CF9063
:1001A000BF90AF900895FC01538D448D252F30E012
:1001B000842F90E0821B930B541710F0CF96089574
:1001C00001970895FC01918D828D981761F0A28DA1
:1001D000AE0FBF2FB11D5D968C91928D9F5F9F7367
:1001E000928F90E008958FEF9FEF0895FC01918D1D
:1001F000828D981731F0828DE80FF11D858D90E08A
:1002000008958FEF9FEF0895FC01918D228D892F26
:1002100090E0805C9F4F821B91098F73992708950E
:1002200081EE91E00E94040121E0892B09F420E095
:10023000822F089580E090E0892B29F00E94100120
:1002400081110C9400000895FC01A48DA80FB92F12
:10025000B11DA35ABF4F2C91848D90E001968F73EE
:100260009927848FA689B7892C93A089B1898C910D
:10027000837080648C93938D848D981306C002885C
:10028000F389E02D80818F7D80830895EF92FF9226
:100290000F931F93CF93DF93EC0181E0888F9B8DA9
:1002A0008C8D98131AC0E889F989808185FF15C063
:1002B0009FB7F894EE89FF896083E889F989808186
:1002C0008370806480839FBF81E090E0DF91CF9155
:1002D0001F910F91FF90EF900895F62E0B8D10E077
:1002E0000F5F1F4F0F731127E02E8C8D8E110CC0E6
:1002F0000FB607FCFACFE889F989808185FFF5CF31
:10030000CE010E942401F1CFEB8DEC0FFD2FF11DEA
:10031000E35AFF4FF0829FB7F8940B8FEA89FB896D
:1003200080818062CFCFCF93DF93EC01888D8823CB
:10033000B9F0AA89BB89E889F9898C9185FD03C048
:10034000808186FD0DC00FB607FCF7CF8C9185FF2D
:10035000F2CF808185FFEDCFCE010E942401E9CF4D
:10036000DF91CF91089590E0FC01E859FF4F24916F
:10037000FC01EC55FF4F3491FC01E057FF4FE49135
:10038000EE23C9F0222339F0233001F1A8F4213003
:1003900019F1223029F1F0E0EE0FFF1FE458FF4F72
:1003A000A591B4918FB7F894EC91611126C0309566
:1003B0003E233C938FBF08952730A9F02830C9F021
:1003C000243049F7809180008F7D03C080918000A8
:1003D0008F7780938000DFCF84B58F7784BDDBCFAC
:1003E00084B58F7DFBCF8091B0008F778093B00074
:1003F000D2CF8091B0008F7DF9CF3E2BDACF8E50D7
:10040000806480937C0080917A00806480937A007D
:1004100080917A0086FDFCCF8091780090917900E0
:1004200008953FB7F8948091D5019091D601A0919D
:10043000D701B091D80126B5A89B05C02F3F19F070
:100440000196A11DB11D3FBFBA2FA92F982F882754
:10045000BC01CD01620F711D811D911D42E0660F2F
:10046000771F881F991F4A95D1F708958F929F9201
:10047000AF92BF92CF92DF92EF92FF924B015C015D
:100480000E9411026B017C010E9411026C197D090E
:100490008E099F09683E734081059105A8F321E00C
:1004A000821A9108A108B10888EEC80E83E0D81E10
:1004B000E11CF11C81149104A104B10429F7FF90FF
:1004C000EF90DF90CF90BF90AF909F908F90089566
:1004D000089590E080E00895FC0101900020E9F784
:1004E0003197AF01481B590BBC018EE792E00C9489
:1004F000A6008F929F92AF92BF920F931F93CF93BC
:10050000DF93CDB7DEB7A1970FB6F894DEBF0FBE6D
:10051000CDBF19A2423008F44AE08E010F5D1F4F93
:10052000842E912CB12CA12CA50194010E941C0AAF
:10053000E62FB901CA01EA30F4F4E05DD801EE9388
:100540008D01232B242B252B79F790E080E0109749
:1005500019F0CD010E946C02A1960FB6F894DEBF8F
:100560000FBECDBFDF91CF911F910F91BF90AF9084
:100570009F908F900895E95CE1CF0C946C02CF932B
:10058000DF93EC0160E08E810E94B30161E08E8117
:100590000E94B30160E08E810E94B3018BE891E07C
:1005A0000197F1F7DF91CF910895CF92DF92EF920B
:1005B000FF920F931F93CF93DF936C017C0187E031
:1005C000E80EF11CD0E0C0E0062F10E0B8010C2EC0
:1005D00002C0759567950A94E2F76170F701819101
:1005E0007F010E94B3012196C430D10579F7C6017D
:1005F000DF91CF911F910F91FF90EF90DF90CF90FF
:100600000C94BF02CF92DF92EF92FF920F931F9351
:10061000CF93DF93EC01F62E642F8C810E94B301FF
:100620008D818F3F19F060E00E94B3010F2D10E023
:100630008F8584FF25C06E0187E0C80ED11CF12C88
:10064000E12CB8010E2C02C0759567950A94E2F76B
:100650006170F60181916F010E94B301FFEFEF1A03
:10066000FF0A88E0E816F10461F7CE01DF91CF912F
:100670001F910F91FF90EF90DF90CF900C94BF02ED
:10068000B80184E0759567958A95E1F7CE010E94DF
:10069000D5026F2DCE01DF91CF911F910F91FF9069
:1006A000EF90DF90CF900C94D50240E0682F8EE75A
:1006B00092E00C94020381E00E9455038BE39FE1DA
:1006C0000197F1F70895CF93DF93823029F4909149
:1006D0008D02986090938D02809391021092920205
:1006E00080E48093930280E18093940280E580937C
:1006F0009502809182020E948700809183028F3F41
:1007000011F00E948700809184020E948700CEE74A
:10071000D2E09E012E57324080918D0284FD0AC0A6
:1007200084E090E02196281739073CF48E810E94DE
:100730008700EFCF88E090E0F5CF8BE39DE0019755
:10074000F1F760E0809182020E94B30160E0809145
:1007500084020E94B301809183028F3F19F060E010
:100760000E94B30180918D0284FD34C063E08EE766
:1007700092E00E94D502CBE4D6E4CE010197F1F7D6
:1007800063E08EE792E00E94D5022197F1F763E0E3
:100790008EE792E00E94D50283E592E00197F1F79F
:1007A00062E08EE792E00E94D50280918D02806225
:1007B0000E94550384E080938E028CE00E945503D2
:1007C0000E945B0382E080938F0286E0DF91CF91ED
:1007D0000C94550380620E9455038BE496E40197C4
:1007E000F1F780918D0280620E94550383E592E0CB
:1007F0000197F1F780918D0280620E945503D5CF59
:1008000090919102691710F06FEF690FE62FF0E0F9
:10081000E258FD4F9489890F80680C94550341E09C
:100820000E94020381E090E008954F925F926F92E0
:100830007F928F929F92AF92BF92CF92DF92EF9270
:10084000FF920F931F93CF936B017C01742EAC0129
:100850009B010E94170A882399F086E291E0CF91CC
:100860001F910F91FF90EF90DF90CF90BF90AF90CE
:100870009F908F907F906F905F904F900C946C0240
:1008800046015701E894B7F82FEF3FEF4FE75FE7D6
:10089000C501B4010E94170A81110DC02FEF3FEF6F
:1008A0004FE75FE7C501B4010E944D0818161CF41C
:1008B0008AE291E0D4CF2FEF3FEF4FE75FE4C7012B
:1008C000B6010E94A50918161CF48EE291E0C7CF6C
:1008D0002FEF3FEF4FE75FECC701B6010E944D08D5
:1008E00087FDF3CF20E030E0A901C701B6010E94E7
:1008F0004D0810E000E087FF0CC041E06DE28EE79C
:1009000092E00E940203F7FAF094F7F8F09401E005
:1009100010E0C0E060E070E080E09FE37C1641F012
:1009200020E030E040E251E40E945208CF5FF6CF71
:10093000A70196010E94E1074B015C010E94C408D7
:100940002B013C014AE00E947902080F191FCC23B9
:10095000C9F1C301B2010E94F3089B01AC01C501BA
:10096000B4010E94E0074B015C0141E06EE28EE7BA
:1009700092E00E9402030F5F1F4FC15018F120E068
:1009800030E040E251E4C501B4010E94AA092B0104
:100990003C010E94C4084B01B12CA12C4AE0C501C6
:1009A000B4010E947902080F191FC501B4010E9409
:1009B000F3089B01AC01C301B2010E94E0074B01A7
:1009C0005C01DBCFC801CF911F910F91FF90EF9099
:1009D000DF90CF90BF90AF909F908F907F906F905F
:1009E0005F904F9008951F920F920FB60F921124AF
:1009F0002F933F934F935F936F937F938F939F9327
:100A0000AF93BF93EF93FF9381EE91E00E94240197
:100A1000FF91EF91BF91AF919F918F917F916F91D6
:100A20005F914F913F912F910F900FBE0F901F90AC
:100A300018951F920F920FB60F9211242F938F9338
:100A40009F93EF93FF93E091F101F091F201808188
:100A5000E091F701F091F80182FD1BC09081809137
:100A6000FA018F5F8F732091FB01821741F0E091B3
:100A7000FA01F0E0EF51FE4F958F8093FA01FF915C
:100A8000EF919F918F912F910F900FBE0F901F901C
:100A900018958081F4CF1F920F920FB60F921124F8
:100AA0002F933F938F939F93AF93BF938091D101E7
:100AB0009091D201A091D301B091D4013091D00195
:100AC00023E0230F2D3758F50196A11DB11D20936A
:100AD000D0018093D1019093D201A093D301B09320
:100AE000D4018091D5019091D601A091D701B09108
:100AF000D8010196A11DB11D8093D5019093D60117
:100B0000A093D701B093D801BF91AF919F918F91DE
:100B10003F912F910F900FBE0F901F90189526E8D0
:100B2000230F0296A11DB11DD2CFE1EEF1E0138299
:100B3000128288EE93E0A0E0B0E084839583A683E0
:100B4000B7838CE091E09183808385EC90E095877A
:100B5000848784EC90E09787868780EC90E0918B87
:100B6000808B81EC90E0938B828B82EC90E0958B74
:100B7000848B86EC90E0978B868B118E128E138E71
:100B8000148EEEE7F2E0138212828EE191E09183FF
:100B9000808387E084838FEF858386E0868385E08A
:100BA000878384E0808783E0818782E08287138661
:100BB000148615861686178681E00C946303789454
:100BC00084B5826084BD84B5816084BD85B5826052
:100BD00085BD85B5816085BD80916E008160809303
:100BE0006E0010928100809181008260809381006C
:100BF000809181008160809381008091800081607C
:100C0000809380008091B10084608093B1008091D6
:100C1000B00081608093B00080917A0084608093FE
:100C20007A0080917A00826080937A0080917A00C5
:100C3000816080937A0080917A00806880937A0046
:100C40001092C100E091F101F091F20182E0808305
:100C5000E091ED01F091EE011082E091EF01F09151
:100C6000F0018FEC80831092F901E091F501F09191
:100C7000F60186E08083E091F301F091F401808138
:100C800080618083E091F301F091F40180818860BC
:100C90008083E091F301F091F4018081806880838A
:100CA000E091F301F091F40180818F7D808382E0F7
:100CB0000E94630382E391E00E94BD0261E080E054
:100CC0000E94000483E491E00E94BD0288E40E9437
:100CD0005503C0E0D1E008E011E069918EE792E0B1
:100CE0000E940F040C171D07C1F760ED77E080E04C
:100CF00090E00E943602C0E0D0E08EE00E94FF014A
:100D0000BC01990F880B990B0E94F50820E030E098
:100D100040E85AE30E94AA0920E030E44CE955E497
:100D20000E94AA096093DD017093DE018093DF01C8
:100D30009093E00120E030E44CE155E40E94E007AC
:100D400020E030E044E852E40E9452086093D90168
:100D50007093DA018093DB019093DC010E945B03C6
:100D600068EE73E080E090E00E94360260E080E090
:100D70000E94000484E591E00E94BD0260E08AE0E8
:100D80000E9400046091DD017091DE018091DF011D
:100D90009091E00141E00E94150460ED77E080E071
:100DA00090E00E94360220E030E040E050E46091A4
:100DB000D9017091DA018091DB019091DC010E94F0
:100DC0004D0860E018160CF4D0C080E00E940004CA
:100DD00085E691E00E94BD0260E08AE00E94000486
:100DE0006091D9017091DA018091DB019091DC0171
:100DF00042E00E94150460E08EE00E94000486E755
:100E000091E00E94BD0264EC79E080E090E00E94F5
:100E1000360261E080E00E9400048FE00E94FF0142
:100E2000BC01990F880B990B0E94F5082AE038E263
:100E300040EA5BE30E94AA0920E030E048EC52E47B
:100E40000E94AA096B017C016AE070E080E090E0FA
:100E50000E94360220E030E046E952E4C701B601C4
:100E60000E944D0818160CF48CC00E945B0360E0D1
:100E700082E00E94000486E891E00E94BD0261E0E9
:100E800084E00E94000442E0C701B6010E941504FC
:100E900061E08EE792E00E940F0468EE73E080E06C
:100EA00090E00E94360261E080E00E94000480E150
:100EB0000E94FF01BC01990F880B990B0E94F50855
:100EC00020E030E040E85AE30E94AA0920E030E048
:100ED0004AEF53E40E94AA096B017C016AE070E0CA
:100EE00080E090E00E94360260E080E00E94000412
:100EF00080EA91E00E94BD0260E08CE00E94000464
:100F000041E0C701B6010E94150464EF71E080E082
:100F100090E00E94360220E030E040EF51E4C7014B
:100F2000B6010E944D0818160CF43FC00E945B03E6
:100F300060E082E00E94000484EB91E00E94BD0228
:100F400061E084E00E94000468EE73E080E090E0DD
:100F50000E943602209709F4D0CE0E941001882307
:100F600009F4CBCE0E940000C8CE80E00E940004AD
:100F700088E791E00E94BD0268EE73E080E090E0B7
:100F800046CF0E945B0360E082E00E94000482E999
:100F900091E00E94BD0261E08EE792E00E940F04A2
:100FA00064EF71E080E090E07CCF0E945B0360E042
:100FB00082E00E94000485EC91E00E94BD02C4CF53
:100FC0005058BB27AA270E94F8070C946B090E946F
:100FD0005D0938F00E94640920F039F49F3F19F44C
:100FE00026F40C945A090EF4E095E7FB0C9454098E
:100FF000E92F0E947C0958F3BA1762077307840728
:10100000950720F079F4A6F50C949E090EF4E0956E
:101010000B2EBA2FA02D0B01B90190010C01CA01B2
:10102000A0011124FF27591B99F0593F50F4503E5D
:1010300068F11A16F040A22F232F342F4427585F4F
:10104000F3CF469537952795A795F0405395C9F767
:101050007EF41F16BA0B620B730B840BBAF091501F
:10106000A1F0FF0FBB1F661F771F881FC2F70EC0BE
:10107000BA0F621F731F841F48F487957795679591
:10108000B795F7959E3F08F0B0CF9395880F08F07D
:101090009927EE0F9795879508950E94300908F4D7
:1010A00081E008950E9466080C946B090E9464090F
:1010B00058F00E945D0940F029F45F3F29F00C943C
:1010C000540951110C949F090C945A090E947C09EF
:1010D00068F39923B1F3552391F3951B550BBB2767
:1010E000AA2762177307840738F09F5F5F4F220FAC
:1010F000331F441FAA1FA9F335D00E2E3AF0E0E8A3
:1011000032D091505040E695001CCAF72BD0FE2FEC
:1011100029D0660F771F881FBB1F26173707480780
:10112000AB07B0E809F0BB0B802DBF01FF27935838
:101130005F4F3AF09E3F510578F00C9454090C949F
:101140009F095F3FE4F3983ED4F3869577956795C2
:10115000B795F7959F5FC9F7880F911D969587956D
:1011600097F90895E1E0660F771F881FBB1F62178C
:1011700073078407BA0720F0621B730B840BBA0B4A
:10118000EE1F88F7E09508950E94840988F09F5724
:1011900098F0B92F9927B751B0F0E1F0660F771F9B
:1011A000881F991F1AF0BA95C9F714C0B13091F091
:1011B0000E949E09B1E008950C949E09672F782F34
:1011C0008827B85F39F0B93FCCF386957795679556
:1011D000B395D9F73EF490958095709561957F4FC2
:1011E0008F4F9F4F0895E89409C097FB3EF4909568
:1011F0008095709561957F4F8F4F9F4F9923A9F0F0
:10120000F92F96E9BB279395F6958795779567957E
:10121000B795F111F8CFFAF4BB0F11F460FF1BC0C2
:101220006F5F7F4F8F4F9F4F16C0882311F096E955
:1012300011C0772321F09EE8872F762F05C0662303
:1012400071F096E8862F70E060E02AF09A95660FBC
:10125000771F881FDAF7880F9695879597F9089575
:10126000990F0008550FAA0BE0E8FEEF16161706B7
:10127000E807F907C0F012161306E407F50798F01F
:10128000621B730B840B950B39F40A2661F0232B38
:10129000242B252B21F408950A2609F4A140A695B4
:1012A0008FEF811D811D089597F99F6780E870E099
:1012B00060E008959FEF80EC089500240A941616CC
:1012C000170618060906089500240A941216130634
:1012D000140605060895092E0394000C11F48823C2
:1012E00052F0BB0F40F4BF2B11F460FF04C06F5FDE
:1012F0007F4F8F4F9F4F089557FD9058440F551FB4
:1013000059F05F3F71F04795880F97FB991F61F087
:101310009F3F79F087950895121613061406551FFE
:10132000F2CF4695F1DF08C0161617061806991F6A
:10133000F1CF86957105610508940895E894BB275F
:1013400066277727CB0197F908950E94300908F4A2
:101350008FEF08950E94BD090C946B090E945D09EE
:1013600038F00E94640920F0952311F00C94540980
:101370000C945A0911240C949F090E947C0970F363
:10138000959FC1F3950F50E0551F629FF001729F2A
:10139000BB27F00DB11D639FAA27F00DB11DAA1F39
:1013A000649F6627B00DA11D661F829F2227B00D86
:1013B000A11D621F739FB00DA11D621F839FA00D11
:1013C000611D221F749F3327A00D611D231F849F61
:1013D000600D211D822F762F6A2F11249F575040B8
:1013E0009AF0F1F088234AF0EE0FFF1FBB1F661F33
:1013F000771F881F91505040A9F79E3F510580F0FC
:101400000C9454090C949F095F3FE4F3983ED4F385
:10141000869577956795B795F795E7959F5FC1F79F
:10142000FE2B880F911D9695879597F908950E9438
:101430003009880B990B0895A1E21A2EAA1BBB1B39
:10144000FD010DC0AA1FBB1FEE1FFF1FA217B30790
:10145000E407F50720F0A21BB30BE40BF50B661FA6
:10146000771F881F991F1A9469F76095709580956A
:1014700090959B01AC01BD01CF010895EE0FFF1FB8
:0C1480000590F491E02D0994F894FFCF42
:10148C000303000000000000000000004601A6005D
:10149C00D30093010401E200F600000000000F04E9
:1014AC00A600690268026E616E00696E66006F7656
:1014BC0066002043757272656E742053656E736F8F
:1014CC007220002020776974682041726475696EFF
:1014DC006F2020005620696E206D56203D20202064
:1014EC00202020200043757272656E74203D2020F0
:1014FC002020202020004100202020204661756CF7
:10150C0074202020200054656D70657261747572B2
:10151C0065002054656D70204661756C7420200048
:10152C00726573695F63757272656E74203D2020FD
:10153C0020202000526573696475616C20437572BC
:10154C0072656E740020204661756C74202000005A
:00000001FF
