:100000000C945D000C9485000C9485000C94850084
:100010000C9485000C9485000C9485000C9485004C
:100020000C9485000C9485000C9485000C9485003C
:100030000C9485000C9485000C9485000C9485002C
:100040000C949A050C9485000C9468050C94420558
:100050000C9485000C9485000C9485000C9485000C
:100060000C9485000C94850000000008000201003B
:100070000003040700000000000000000000000072
:10008000250028002B0000000000240027002A0083
:10009000040404040404040402020202020203032E
:1000A0000303030301020408102040800102040836
:1000B0001020010204081020E40511241FBECFEF18
:1000C000D8E0DEBFCDBF11E0A0E0B1E0EEE4F5E1A5
:1000D00002C005900D92A23EB107D9F722E0A2EE30
:1000E000B1E001C01D92AA3AB207E1F710E0CDE5F8
:1000F000D0E004C02197FE010E949F0ACC35D107B1
:10010000C9F70E942E060C94A50A0C94000090E0FA
:10011000FC01EC55FF4F249180579F4FFC018491C7
:10012000882399F090E0880F991FFC01EA57FF4F50
:10013000A591B491FC01E458FF4F859194918FB73C
:10014000F894EC91E22BEC938FBF0895DC01ED91D4
:10015000FC910190F081E02D0994AF92BF92CF9273
:10016000DF92EF92FF920F931F93CF93DF936C0177
:100170007B018B01040F151FEB015E01AE18BF0858
:10018000C017D10759F06991D601ED91FC9101900A
:10019000F081E02DC6010995892B79F7C501DF9122
:1001A000CF911F910F91FF90EF90DF90CF90BF9074
:1001B000AF900895FC01538D448D252F30E0842F9E
:1001C00090E0821B930B541710F0CF96089501977F
:1001D0000895FC01918D828D981761F0A28DAE0F6C
:1001E000BF2FB11D5D968C91928D9F5F9F73928FF3
:1001F00090E008958FEF9FEF0895FC01918D828D1F
:10020000981731F0828DE80FF11D858D90E00895EB
:100210008FEF9FEF0895FC01918D228D892F90E043
:10022000805C9F4F821B91098F739927089585EFFA
:1002300091E00E940B0121E0892B09F420E0822F3C
:10024000089580E090E0892B29F00E941701811128
:100250000C9400000895FC01A48DA80FB92FB11DC6
:10026000A35ABF4F2C91848D90E001968F739927EC
:10027000848FA689B7892C93A089B1898C918370CA
:1002800080648C93938D848D981306C00288F389C3
:10029000E02D80818F7D80830895EF92FF920F93F0
:1002A0001F93CF93DF93EC0181E0888F9B8D8C8D22
:1002B00098131AC0E889F989808185FF15C09FB716
:1002C000F894EE89FF896083E889F98980818370D9
:1002D000806480839FBF81E090E0DF91CF911F9188
:1002E0000F91FF90EF900895F62E0B8D10E00F5FA9
:1002F0001F4F0F731127E02E8C8D8E110CC00FB67F
:1003000007FCFACFE889F989808185FFF5CFCE0116
:100310000E942B01F1CFEB8DEC0FFD2FF11DE35A65
:10032000FF4FF0829FB7F8940B8FEA89FB89808199
:100330008062CFCFCF93DF93EC01888D8823B9F013
:10034000AA89BB89E889F9898C9185FD03C08081E0
:1003500086FD0DC00FB607FCF7CF8C9185FFF2CF5D
:10036000808185FFEDCFCE010E942B01E9CFDF9187
:10037000CF91089590E0FC01E859FF4F2491FC01D2
:10038000EC55FF4F3491FC01E057FF4FE491EE2311
:10039000C9F0222339F0233001F1A8F4213019F1FA
:1003A000223029F1F0E0EE0FFF1FE458FF4FA59136
:1003B000B4918FB7F894EC91611126C030953E232B
:1003C0003C938FBF08952730A9F02830C9F024301E
:1003D00049F7809180008F7D03C0809180008F77E6
:1003E00080938000DFCF84B58F7784BDDBCF84B569
:1003F0008F7DFBCF8091B0008F778093B000D2CFFC
:100400008091B0008F7DF9CF3E2BDACF8E50806483
:1004100080937C0080917A00806480937A00809140
:100420007A0086FDFCCF8091780090917900089544
:100430003FB7F8948091E7019091E801A091E9011C
:10044000B091EA0126B5A89B05C02F3F19F001968F
:10045000A11DB11D3FBFBA2FA92F982F8827BC011E
:10046000CD01620F711D811D911D42E0660F771F46
:10047000881F991F4A95D1F708958F929F92AF9246
:10048000BF92CF92DF92EF92FF924B015C010E94EC
:1004900018026B017C010E9418026C197D098E09FB
:1004A0009F09683E734081059105A8F321E0821AF7
:1004B0009108A108B10888EEC80E83E0D81EE11C9F
:1004C000F11C81149104A104B10429F7FF90EF906D
:1004D000DF90CF90BF90AF909F908F900895089538
:1004E00090E080E00895CF93DF93EC0160E08E818F
:1004F0000E94BA0161E08E810E94BA0160E08E81A3
:100500000E94BA018BE891E00197F1F7DF91CF915A
:100510000895CF92DF92EF92FF920F931F93CF93A4
:10052000DF936C017C0187E0E80EF11CD0E0C0E0B5
:10053000062F10E0B8010C2E02C0759567950A943D
:10054000E2F76170F70181917F010E94BA01219663
:10055000C430D10579F7C601DF91CF911F910F917A
:10056000FF90EF90DF90CF900C947302CF92DF92C8
:10057000EF92FF920F931F93CF93DF93EC01F62E30
:10058000642F8C810E94BA018D818F3F19F060E049
:100590000E94BA010F2D10E08F8584FF25C06E01E7
:1005A00087E0C80ED11CF12CE12CB8010E2C02C042
:1005B000759567950A94E2F76170F60181916F0174
:1005C0000E94BA01FFEFEF1AFF0A88E0E816F10473
:1005D00061F7CE01DF91CF911F910F91FF90EF90C6
:1005E000DF90CF900C947302B80184E07595679505
:1005F0008A95E1F7CE010E9489026F2DCE01DF912D
:10060000CF911F910F91FF90EF90DF90CF900C94BE
:10061000890240E0682F82E992E00C94B60281E002
:100620000E9409038BE39FE10197F1F70895CF93AF
:10063000DF93823029F49091A10298609093A102F7
:100640008093A5021092A60280E48093A70280E125
:100650008093A80280E58093A902809196020E946F
:100660008700809197028F3F11F00E948700809150
:1006700098020E948700C2E9D2E09E0122593240CE
:100680008091A10284FD0AC084E090E021962817A1
:1006900039073CF48E810E948700EFCF88E090E01C
:1006A000F5CF8BE39DE00197F1F760E08091960232
:1006B0000E94BA0160E0809198020E94BA01809184
:1006C00097028F3F19F060E00E94BA018091A10269
:1006D00084FD34C063E082E992E00E948902CBE4A9
:1006E000D6E4CE010197F1F763E082E992E00E943F
:1006F00089022197F1F763E082E992E00E94890282
:1007000083E592E00197F1F762E082E992E00E94CE
:1007100089028091A10280620E94090384E0809393
:10072000A2028CE00E9409030E940F0382E08093E2
:10073000A30286E0DF91CF910C94090380620E94AE
:1007400009038BE496E40197F1F78091A10280629E
:100750000E94090383E592E00197F1F78091A102DD
:1007600080620E940903D5CF9091A502691710F00D
:100770006FEF690FE62FF0E0EE56FD4F9489890F79
:1007800080680C94090341E00E94B60281E090E089
:100790000895FB0101900020E9F73197AF01461B56
:1007A000570BDC01ED91FC910280F381E02D09945F
:1007B0008F929F92AF92BF92EF92FF920F931F93EF
:1007C000CF93DF93CDB7DEB7A1970FB6F894DEBF16
:1007D0000FBECDBF7C01FA01CB0119A2223008F473
:1007E0002AE08E010F5D1F4F822E912CB12CA12C7F
:1007F000BF01A50194010E947D0AF901CA016A3076
:100800000CF5605DD8016E938D01232B242B252BD5
:1008100079F790E080E0109721F0BD01C7010E94B8
:10082000C903A1960FB6F894DEBF0FBECDBFDF910E
:10083000CF911F910F91FF90EF90BF90AF909F903D
:100840008F900895695CDECFCF92DF92EF92FF9296
:100850000F931F93CF93DF936B01770FEE08FF0881
:10086000F7FE1BC0EC016DE20E94A6008C0144273C
:100870005527BA014C195D096E097F092AE0CE019E
:100880000E94D803800F911FDF91CF911F910F918C
:10089000FF90EF90DF90CF9008952AE0B701A60176
:1008A000DF91CF911F910F91FF90EF90DF90CF904C
:1008B0000C94D8032F923F924F925F926F927F9247
:1008C0008F929F92AF92BF92CF92DF92EF92FF9260
:1008D0001F93CF93DF93EC016A017B01722EAB0172
:1008E0009601CB01B6010E94780A66E271E081119F
:1008F00026C046015701E894B7F82FEF3FEF4FE7C6
:100900005FE7C501B4010E94780A81110CC02FEF86
:100910003FEF4FE75FE7C501B4010E94AE086AE20E
:1009200071E0181664F02FEF3FEF4FE75FE4C70167
:10093000B6010E94060A1816B4F46EE271E0CE0108
:10094000DF91CF911F91FF90EF90DF90CF90BF90FC
:10095000AF909F908F907F906F905F904F903F905F
:100960002F900C94C9032FEF3FEF4FE75FECC701C7
:10097000B6010E94AE0887FDE0CF20E030E0A9017B
:10098000C701B6010E94AE08312C212C87FF09C097
:100990006DE2CE010E94A6001C01F7FAF094F7F870
:1009A000F09410E060E070E080E09FE3711641F0A9
:1009B00020E030E040E251E40E94B3081F5FF6CF30
:1009C000A70196010E9442082B013C010E942509C3
:1009D0004B015C012AE0BC01A401CE010E94D803B6
:1009E0007C01E20CF31C1123C1F1C501B4010E948A
:1009F00054099B01AC01C301B2010E9441084B01A3
:100A00005C016EE2CE010E94A600E80EF91E1150B4
:100A100020F120E030E040E251E4C501B4010E9441
:100A20000B0A2B013C010E9425094B01B12CA12C82
:100A30002AE0B501A401CE010E94D803E80EF91EF8
:100A4000C501B4010E9454099B01AC01C301B2016C
:100A50000E9441084B015C01DACFC701DF91CF91C1
:100A60001F91FF90EF90DF90CF90BF90AF909F903D
:100A70008F907F906F905F904F903F902F90089550
:100A80000C94C9031F920F920FB60F9211242F934B
:100A90003F934F935F936F937F938F939F93AF9306
:100AA000BF93EF93FF9385EF91E00E942B01FF919D
:100AB000EF91BF91AF919F918F917F916F915F91D6
:100AC0004F913F912F910F900FBE0F901F9018954F
:100AD0001F920F920FB60F9211242F938F939F9313
:100AE000EF93FF93E0910502F09106028081E0917F
:100AF0000B02F0910C0282FD1BC0908180910E02CE
:100B00008F5F8F7320910F02821741F0E0910E02E8
:100B1000F0E0EB50FE4F958F80930E02FF91EF9126
:100B20009F918F912F910F900FBE0F901F9018954E
:100B30008081F4CF1F920F920FB60F9211242F9342
:100B40003F938F939F93AF93BF938091E3019091D5
:100B5000E401A091E501B091E6013091E20123E0CA
:100B6000230F2D3758F50196A11DB11D2093E201E9
:100B70008093E3019093E401A093E501B093E60133
:100B80008091E7019091E801A091E901B091EA011B
:100B90000196A11DB11D8093E7019093E801A093F8
:100BA000E901B093EA01BF91AF919F918F913F917D
:100BB0002F910F900FBE0F901F90189526E8230FCE
:100BC0000296A11DB11DD2CFE5EFF1E01382128292
:100BD00088EE93E0A0E0B0E084839583A683B7839A
:100BE0008CE091E09183808385EC90E09587848709
:100BF00084EC90E09787868780EC90E0918B808BE7
:100C000081EC90E0938B828B82EC90E0958B848BCF
:100C100086EC90E0978B868B118E128E138E148E3D
:100C2000E2E9F2E0138212828EE191E09183808307
:100C300087E084838FEF858386E0868385E08783E2
:100C400084E0808783E0818782E082871386148630
:100C500015861686178681E00C941703789484B560
:100C6000826084BD84B5816084BD85B5826085BDA8
:100C700085B5816085BD80916E00816080936E0036
:100C80001092810080918100826080938100809128
:100C900081008160809381008091800081608093D9
:100CA00080008091B10084608093B1008091B00099
:100CB00081608093B00080917A00846080937A0094
:100CC00080917A00826080937A0080917A008160BE
:100CD00080937A0080917A00806880937A001092E5
:100CE000C100E0910502F091060282E08083E0916C
:100CF0000102F09102021082E0910302F0910402DD
:100D00008FEC808310920D02E0910902F0910A02AB
:100D100086E08083E0910702F09108028081806183
:100D20008083E0910702F0910802808188608083CF
:100D3000E0910702F0910802808180688083E09151
:100D40000702F091080280818F7D808382E00E94FB
:100D5000170362E371E082E992E00E94400561E0DE
:100D600080E00E94B40363E471E082E992E00E94B3
:100D7000400588E40E940903C0E0D1E008E011E0EA
:100D8000699182E992E00E94C3030C171D07C1F725
:100D900060ED77E080E090E00E943D02C0E0D0E0AE
:100DA0008EE00E9406029093F4018093F301BC014F
:100DB000990F880B990B0E94560920E030E040E81B
:100DC0005AE30E940B0A20E030E44CE955E40E940B
:100DD0000B0A6093EF017093F0018093F1019093FF
:100DE000F20120E030E44CE155E40E94410820E0AB
:100DF00030E044E852E40E94B3086093EB01709342
:100E0000EC018093ED019093EE0164E571E085EFD4
:100E100091E00E9440056091F3017091F40185EF2B
:100E200091E00E9424040E940F0368EE73E080E0CA
:100E300090E00E943D0260E080E00E94B40368E61A
:100E400071E082E992E00E94400560E08CE00E943F
:100E5000B4036091F3017091F40182E992E00E9481
:100E6000240460ED77E080E090E00E943D0269E7B5
:100E700071E085EF91E00E9440054091EF015091B3
:100E8000F0016091F1017091F20123E085EF91E0B2
:100E90000E945A0460E080E00E94B4036AE871E0B6
:100EA00082E992E00E94400560E08AE00E94B4037B
:100EB0004091EF015091F0016091F1017091F201C8
:100EC00021E082E992E00E945A0460ED77E080E040
:100ED00090E00E943D026BE971E085EF91E00E9495
:100EE00040054091EB015091EC016091ED01709152
:100EF000EE0123E085EF91E00E945A0468EA71E078
:100F000085EF91E00E94C90320E030E040E050E42A
:100F10006091EB017091EC018091ED019091EE01F7
:100F20000E94AE0860E018160CF490C080E00E94A9
:100F3000B4036BEA71E082E992E00E94400560E050
:100F40008AE00E94B4034091EB015091EC01609162
:100F5000ED017091EE0122E082E992E00E945A04D4
:100F600060E08EE00E94B4036CEB71E082E992E0F5
:100F70000E94400564EC79E080E090E00E943D0230
:100F800061E080E00E94B4038FE00E940602BC0191
:100F9000990F880B990B0E9456092AE038E240EA23
:100FA0005BE30E940B0A20E030E048EC52E40E9430
:100FB0000B0A6B017C016AE070E080E090E00E9427
:100FC0003D0220E030E046E952E4C701B6010E944C
:100FD000AE0818160CF448C00E940F0360E082E0CF
:100FE0000E94B4036CEC71E082E992E00E9440053B
:100FF00022E0B701A60185EF91E00E945A0468EA59
:1010000071E085EF91E00E94C90361E084E00E94F5
:10101000B40322E0B701A60182E992E00E945A04DB
:1010200061E082E992E00E94C30368EE73E080E031
:1010300090E00E943D02209709F4B2CE0E94170171
:10104000882309F4ADCE0E940000AACE80E00E9461
:10105000B4036EEB71E082E992E00E94400568EE15
:1010600073E080E090E08ACF0E940F0360E082E0AE
:101070000E94B40368ED71E082E992E00E944005AD
:10108000CFCF5058BB27AA270E9459080C94CC09EF
:101090000E94BE0938F00E94C50920F039F49F3F34
:1010A00019F426F40C94BB090EF4E095E7FB0C94BC
:1010B000B509E92F0E94DD0958F3BA1762077307D3
:1010C0008407950720F079F4A6F50C94FF090EF437
:1010D000E0950B2EBA2FA02D0B01B90190010C0148
:1010E000CA01A0011124FF27591B99F0593F50F460
:1010F000503E68F11A16F040A22F232F342F4427B8
:10110000585FF3CF469537952795A795F0405395AF
:10111000C9F77EF41F16BA0B620B730B840BBAF07F
:101120009150A1F0FF0FBB1F661F771F881FC2F7EA
:101130000EC0BA0F621F731F841F48F487957795FE
:101140006795B795F7959E3F08F0B0CF9395880FB8
:1011500008F09927EE0F9795879508950E949109B9
:1011600008F481E008950E94C7080C94CC090E94FD
:10117000C50958F00E94BE0940F029F45F3F29F0EC
:101180000C94B50951110C94000A0C94BB090E94EF
:10119000DD0968F39923B1F3552391F3951B550BA2
:1011A000BB27AA2762177307840738F09F5F5F4F3A
:1011B000220F331F441FAA1FA9F335D00E2E3AF079
:1011C000E0E832D091505040E695001CCAF72BD091
:1011D000FE2F29D0660F771F881FBB1F26173707E2
:1011E0004807AB07B0E809F0BB0B802DBF01FF2714
:1011F00093585F4F3AF09E3F510578F00C94B50933
:101200000C94000A5F3FE4F3983ED4F386957795FB
:101210006795B795F7959F5FC9F7880F911D9695CC
:10122000879597F90895E1E0660F771F881FBB1F28
:10123000621773078407BA0720F0621B730B840BD5
:10124000BA0BEE1F88F7E09508950E94E50988F033
:101250009F5798F0B92F9927B751B0F0E1F0660F7A
:10126000771F881F991F1AF0BA95C9F714C0B130BB
:1012700091F00E94FF09B1E008950C94FF09672FD7
:10128000782F8827B85F39F0B93FCCF386957795EA
:101290006795B395D9F73EF49095809570956195D3
:1012A0007F4F8F4F9F4F0895E89409C097FB3EF4FE
:1012B00090958095709561957F4F8F4F9F4F9923A3
:1012C000A9F0F92F96E9BB279395F6958795779521
:1012D0006795B795F111F8CFFAF4BB0F11F460FFE1
:1012E0001BC06F5F7F4F8F4F9F4F16C0882311F039
:1012F00096E911C0772321F09EE8872F762F05C04D
:10130000662371F096E8862F70E060E02AF09A95E7
:10131000660F771F881FDAF7880F9695879597F9DC
:101320000895990F0008550FAA0BE0E8FEEF161676
:101330001706E807F907C0F012161306E407F507C9
:1013400098F0621B730B840B950B39F40A2661F03D
:10135000232B242B252B21F408950A2609F4A140E0
:10136000A6958FEF811D811D089597F99F6780E8ED
:1013700070E060E008959FEF80EC089500240A94E7
:101380001616170618060906089500240A94121660
:101390001306140605060895092E0394000C11F493
:1013A000882352F0BB0F40F4BF2B11F460FF04C040
:1013B0006F5F7F4F8F4F9F4F089557FD9058440F99
:1013C000551F59F05F3F71F04795880F97FB991FA4
:1013D00061F09F3F79F08795089512161306140661
:1013E000551FF2CF4695F1DF08C0161617061806EE
:1013F000991FF1CF86957105610508940895E894C9
:10140000BB2766277727CB0197F908950E9491099A
:1014100008F48FEF08950E941E0A0C94CC090E94D4
:10142000BE0938F00E94C50920F0952311F00C94F4
:10143000B5090C94BB0911240C94000A0E94DD0923
:1014400070F3959FC1F3950F50E0551F629FF00117
:10145000729FBB27F00DB11D639FAA27F00DB11D30
:10146000AA1F649F6627B00DA11D661F829F2227B9
:10147000B00DA11D621F739FB00DA11D621F839F40
:10148000A00D611D221F749F3327A00D611D231F16
:10149000849F600D211D822F762F6A2F11249F5764
:1014A00050409AF0F1F088234AF0EE0FFF1FBB1F67
:1014B000661F771F881F91505040A9F79E3F510526
:1014C00080F00C94B5090C94000A5F3FE4F3983E59
:1014D000D4F3869577956795B795F795E7959F5FD0
:1014E000C1F7FE2B880F911D9695879597F9089562
:1014F0000E949109880B990B0895A1E21A2EAA1B4C
:10150000BB1BFD010DC0AA1FBB1FEE1FFF1FA217B3
:10151000B307E407F50720F0A21BB30BE40BF50BB0
:10152000661F771F881F991F1A9469F76095709539
:10153000809590959B01AC01BD01CF010895EE0F00
:0E154000FF1F0590F491E02D0994F894FFCF61
:10154E000303000000000000000000004D01AD008C
:10155E00DA009A010B01E900FD0000000000C30350
:10156E00AD0070026F026E616E00696E66006F767E
:10157E0066002043757272656E742053656E736FCC
:10158E007220002020776974682041726475696E3C
:10159E006F2020005261772053656E736F72205654
:1015AE00616C7565203D20004144432056616C7589
:1015BE0065203D2020202020000920566F6C74618C
:1015CE006765286D5629203D20005620696E206DD6
:1015DE0056203D2020202020202000092043757217
:1015EE0072656E74203D20000D0A0043757272659F
:1015FE006E74203D2020202020202000410020203D
:10160E0020204661756C74202020200054656D707A
:10161E0065726174757265004675636B206F6666E0
:02162E000000BA
:00000001FF
